{
  "_format": "hh-sol-artifact-1",
  "contractName": "MyNFT",
  "sourceName": "contracts/nft.sol",
  "abi": [
    {
      "inputs": [],
      "stateMutability": "nonpayable",
      "type": "constructor"
    },
    {
      "inputs": [
        {
          "internalType": "address",
          "name": "sender",
          "type": "address"
        },
        {
          "internalType": "uint256",
          "name": "tokenId",
          "type": "uint256"
        },
        {
          "internalType": "address",
          "name": "owner",
          "type": "address"
        }
      ],
      "name": "ERC721IncorrectOwner",
      "type": "error"
    },
    {
      "inputs": [
        {
          "internalType": "address",
          "name": "operator",
          "type": "address"
        },
        {
          "internalType": "uint256",
          "name": "tokenId",
          "type": "uint256"
        }
      ],
      "name": "ERC721InsufficientApproval",
      "type": "error"
    },
    {
      "inputs": [
        {
          "internalType": "address",
          "name": "approver",
          "type": "address"
        }
      ],
      "name": "ERC721InvalidApprover",
      "type": "error"
    },
    {
      "inputs": [
        {
          "internalType": "address",
          "name": "operator",
          "type": "address"
        }
      ],
      "name": "ERC721InvalidOperator",
      "type": "error"
    },
    {
      "inputs": [
        {
          "internalType": "address",
          "name": "owner",
          "type": "address"
        }
      ],
      "name": "ERC721InvalidOwner",
      "type": "error"
    },
    {
      "inputs": [
        {
          "internalType": "address",
          "name": "receiver",
          "type": "address"
        }
      ],
      "name": "ERC721InvalidReceiver",
      "type": "error"
    },
    {
      "inputs": [
        {
          "internalType": "address",
          "name": "sender",
          "type": "address"
        }
      ],
      "name": "ERC721InvalidSender",
      "type": "error"
    },
    {
      "inputs": [
        {
          "internalType": "uint256",
          "name": "tokenId",
          "type": "uint256"
        }
      ],
      "name": "ERC721NonexistentToken",
      "type": "error"
    },
    {
      "inputs": [
        {
          "internalType": "address",
          "name": "owner",
          "type": "address"
        }
      ],
      "name": "OwnableInvalidOwner",
      "type": "error"
    },
    {
      "inputs": [
        {
          "internalType": "address",
          "name": "account",
          "type": "address"
        }
      ],
      "name": "OwnableUnauthorizedAccount",
      "type": "error"
    },
    {
      "anonymous": false,
      "inputs": [
        {
          "indexed": true,
          "internalType": "address",
          "name": "owner",
          "type": "address"
        },
        {
          "indexed": true,
          "internalType": "address",
          "name": "approved",
          "type": "address"
        },
        {
          "indexed": true,
          "internalType": "uint256",
          "name": "tokenId",
          "type": "uint256"
        }
      ],
      "name": "Approval",
      "type": "event"
    },
    {
      "anonymous": false,
      "inputs": [
        {
          "indexed": true,
          "internalType": "address",
          "name": "owner",
          "type": "address"
        },
        {
          "indexed": true,
          "internalType": "address",
          "name": "operator",
          "type": "address"
        },
        {
          "indexed": false,
          "internalType": "bool",
          "name": "approved",
          "type": "bool"
        }
      ],
      "name": "ApprovalForAll",
      "type": "event"
    },
    {
      "anonymous": false,
      "inputs": [
        {
          "indexed": false,
          "internalType": "uint256",
          "name": "_fromTokenId",
          "type": "uint256"
        },
        {
          "indexed": false,
          "internalType": "uint256",
          "name": "_toTokenId",
          "type": "uint256"
        }
      ],
      "name": "BatchMetadataUpdate",
      "type": "event"
    },
    {
      "anonymous": false,
      "inputs": [
        {
          "indexed": false,
          "internalType": "uint256",
          "name": "_tokenId",
          "type": "uint256"
        }
      ],
      "name": "MetadataUpdate",
      "type": "event"
    },
    {
      "anonymous": false,
      "inputs": [
        {
          "indexed": true,
          "internalType": "address",
          "name": "previousOwner",
          "type": "address"
        },
        {
          "indexed": true,
          "internalType": "address",
          "name": "newOwner",
          "type": "address"
        }
      ],
      "name": "OwnershipTransferred",
      "type": "event"
    },
    {
      "anonymous": false,
      "inputs": [
        {
          "indexed": true,
          "internalType": "address",
          "name": "from",
          "type": "address"
        },
        {
          "indexed": true,
          "internalType": "address",
          "name": "to",
          "type": "address"
        },
        {
          "indexed": true,
          "internalType": "uint256",
          "name": "tokenId",
          "type": "uint256"
        }
      ],
      "name": "Transfer",
      "type": "event"
    },
    {
      "inputs": [
        {
          "internalType": "address",
          "name": "to",
          "type": "address"
        },
        {
          "internalType": "uint256",
          "name": "tokenId",
          "type": "uint256"
        }
      ],
      "name": "approve",
      "outputs": [],
      "stateMutability": "nonpayable",
      "type": "function"
    },
    {
      "inputs": [
        {
          "internalType": "address",
          "name": "owner",
          "type": "address"
        }
      ],
      "name": "balanceOf",
      "outputs": [
        {
          "internalType": "uint256",
          "name": "",
          "type": "uint256"
        }
      ],
      "stateMutability": "view",
      "type": "function"
    },
    {
      "inputs": [
        {
          "internalType": "uint256",
          "name": "tokenId",
          "type": "uint256"
        }
      ],
      "name": "getApproved",
      "outputs": [
        {
          "internalType": "address",
          "name": "",
          "type": "address"
        }
      ],
      "stateMutability": "view",
      "type": "function"
    },
    {
      "inputs": [
        {
          "internalType": "address",
          "name": "owner",
          "type": "address"
        },
        {
          "internalType": "address",
          "name": "operator",
          "type": "address"
        }
      ],
      "name": "isApprovedForAll",
      "outputs": [
        {
          "internalType": "bool",
          "name": "",
          "type": "bool"
        }
      ],
      "stateMutability": "view",
      "type": "function"
    },
    {
      "inputs": [
        {
          "internalType": "string",
          "name": "_tokenURI",
          "type": "string"
        }
      ],
      "name": "mint",
      "outputs": [],
      "stateMutability": "nonpayable",
      "type": "function"
    },
    {
      "inputs": [],
      "name": "name",
      "outputs": [
        {
          "internalType": "string",
          "name": "",
          "type": "string"
        }
      ],
      "stateMutability": "view",
      "type": "function"
    },
    {
      "inputs": [],
      "name": "nextTokenId",
      "outputs": [
        {
          "internalType": "uint256",
          "name": "",
          "type": "uint256"
        }
      ],
      "stateMutability": "view",
      "type": "function"
    },
    {
      "inputs": [],
      "name": "owner",
      "outputs": [
        {
          "internalType": "address",
          "name": "",
          "type": "address"
        }
      ],
      "stateMutability": "view",
      "type": "function"
    },
    {
      "inputs": [
        {
          "internalType": "uint256",
          "name": "tokenId",
          "type": "uint256"
        }
      ],
      "name": "ownerOf",
      "outputs": [
        {
          "internalType": "address",
          "name": "",
          "type": "address"
        }
      ],
      "stateMutability": "view",
      "type": "function"
    },
    {
      "inputs": [],
      "name": "renounceOwnership",
      "outputs": [],
      "stateMutability": "nonpayable",
      "type": "function"
    },
    {
      "inputs": [
        {
          "internalType": "address",
          "name": "from",
          "type": "address"
        },
        {
          "internalType": "address",
          "name": "to",
          "type": "address"
        },
        {
          "internalType": "uint256",
          "name": "tokenId",
          "type": "uint256"
        }
      ],
      "name": "safeTransferFrom",
      "outputs": [],
      "stateMutability": "nonpayable",
      "type": "function"
    },
    {
      "inputs": [
        {
          "internalType": "address",
          "name": "from",
          "type": "address"
        },
        {
          "internalType": "address",
          "name": "to",
          "type": "address"
        },
        {
          "internalType": "uint256",
          "name": "tokenId",
          "type": "uint256"
        },
        {
          "internalType": "bytes",
          "name": "data",
          "type": "bytes"
        }
      ],
      "name": "safeTransferFrom",
      "outputs": [],
      "stateMutability": "nonpayable",
      "type": "function"
    },
    {
      "inputs": [
        {
          "internalType": "address",
          "name": "operator",
          "type": "address"
        },
        {
          "internalType": "bool",
          "name": "approved",
          "type": "bool"
        }
      ],
      "name": "setApprovalForAll",
      "outputs": [],
      "stateMutability": "nonpayable",
      "type": "function"
    },
    {
      "inputs": [
        {
          "internalType": "bytes4",
          "name": "interfaceId",
          "type": "bytes4"
        }
      ],
      "name": "supportsInterface",
      "outputs": [
        {
          "internalType": "bool",
          "name": "",
          "type": "bool"
        }
      ],
      "stateMutability": "view",
      "type": "function"
    },
    {
      "inputs": [],
      "name": "symbol",
      "outputs": [
        {
          "internalType": "string",
          "name": "",
          "type": "string"
        }
      ],
      "stateMutability": "view",
      "type": "function"
    },
    {
      "inputs": [
        {
          "internalType": "uint256",
          "name": "tokenId",
          "type": "uint256"
        }
      ],
      "name": "tokenURI",
      "outputs": [
        {
          "internalType": "string",
          "name": "",
          "type": "string"
        }
      ],
      "stateMutability": "view",
      "type": "function"
    },
    {
      "inputs": [
        {
          "internalType": "address",
          "name": "from",
          "type": "address"
        },
        {
          "internalType": "address",
          "name": "to",
          "type": "address"
        },
        {
          "internalType": "uint256",
          "name": "tokenId",
          "type": "uint256"
        }
      ],
      "name": "transferFrom",
      "outputs": [],
      "stateMutability": "nonpayable",
      "type": "function"
    },
    {
      "inputs": [
        {
          "internalType": "address",
          "name": "newOwner",
          "type": "address"
        }
      ],
      "name": "transferOwnership",
      "outputs": [],
      "stateMutability": "nonpayable",
      "type": "function"
    }
  ],
  "bytecode": "0x60806040523480156200001157600080fd5b50735e9cb78c3b97e5405cefc386ff98c9d1e242a61e604051806040016040528060088152602001674e465453544f524560c01b815250604051806040016040528060048152602001634e46545360e01b8152508160009081620000769190620001c0565b506001620000858282620001c0565b5050506001600160a01b038116620000b757604051631e4fbdf760e01b81526000600482015260240160405180910390fd5b620000c281620000c9565b506200028c565b600780546001600160a01b038381166001600160a01b0319831681179093556040519116919082907f8be0079c531659141344cd1fd0a4f28419497f9722a3daafe3b4186f6b6457e090600090a35050565b634e487b7160e01b600052604160045260246000fd5b600181811c908216806200014657607f821691505b6020821081036200016757634e487b7160e01b600052602260045260246000fd5b50919050565b601f821115620001bb57600081815260208120601f850160051c81016020861015620001965750805b601f850160051c820191505b81811015620001b757828155600101620001a2565b5050505b505050565b81516001600160401b03811115620001dc57620001dc6200011b565b620001f481620001ed845462000131565b846200016d565b602080601f8311600181146200022c5760008415620002135750858301515b600019600386901b1c1916600185901b178555620001b7565b600085815260208120601f198616915b828110156200025d578886015182559484019460019091019084016200023c565b50858210156200027c5787850151600019600388901b60f8161c191681555b5050505050600190811b01905550565b61141b806200029c6000396000f3fe608060405234801561001057600080fd5b50600436106101165760003560e01c806375794a3c116100a2578063b88d4fde11610071578063b88d4fde1461022f578063c87b56dd14610242578063d85d3d2714610255578063e985e9c514610268578063f2fde38b1461027b57600080fd5b806375794a3c146101fa5780638da5cb5b1461020357806395d89b4114610214578063a22cb4651461021c57600080fd5b806323b872dd116100e957806323b872dd1461019857806342842e0e146101ab5780636352211e146101be57806370a08231146101d1578063715018a6146101f257600080fd5b806301ffc9a71461011b57806306fdde0314610143578063081812fc14610158578063095ea7b314610183575b600080fd5b61012e610129366004610ef7565b61028e565b60405190151581526020015b60405180910390f35b61014b6102b9565b60405161013a9190610f64565b61016b610166366004610f77565b61034b565b6040516001600160a01b03909116815260200161013a565b610196610191366004610fac565b610374565b005b6101966101a6366004610fd6565b610383565b6101966101b9366004610fd6565b610413565b61016b6101cc366004610f77565b610433565b6101e46101df366004611012565b61043e565b60405190815260200161013a565b610196610486565b6101e460085481565b6007546001600160a01b031661016b565b61014b61049a565b61019661022a36600461102d565b6104a9565b61019661023d3660046110f5565b6104b4565b61014b610250366004610f77565b6104cb565b610196610263366004611171565b6105dc565b61012e6102763660046111ba565b61060c565b610196610289366004611012565b61063a565b60006001600160e01b03198216632483248360e11b14806102b357506102b382610678565b92915050565b6060600080546102c8906111ed565b80601f01602080910402602001604051908101604052809291908181526020018280546102f4906111ed565b80156103415780601f1061031657610100808354040283529160200191610341565b820191906000526020600020905b81548152906001019060200180831161032457829003601f168201915b5050505050905090565b6000610356826106c8565b506000828152600460205260409020546001600160a01b03166102b3565b61037f828233610701565b5050565b6001600160a01b0382166103b257604051633250574960e11b8152600060048201526024015b60405180910390fd5b60006103bf83833361070e565b9050836001600160a01b0316816001600160a01b03161461040d576040516364283d7b60e01b81526001600160a01b03808616600483015260248201849052821660448201526064016103a9565b50505050565b61042e838383604051806020016040528060008152506104b4565b505050565b60006102b3826106c8565b60006001600160a01b03821661046a576040516322718ad960e21b8152600060048201526024016103a9565b506001600160a01b031660009081526003602052604090205490565b61048e610807565b6104986000610834565b565b6060600180546102c8906111ed565b61037f338383610886565b6104bf848484610383565b61040d84848484610925565b60606104d6826106c8565b50600082815260066020526040812080546104f0906111ed565b80601f016020809104026020016040519081016040528092919081815260200182805461051c906111ed565b80156105695780601f1061053e57610100808354040283529160200191610569565b820191906000526020600020905b81548152906001019060200180831161054c57829003601f168201915b50505050509050600061058760408051602081019091526000815290565b90508051600003610599575092915050565b8151156105cb5780826040516020016105b3929190611227565b60405160208183030381529060405292505050919050565b6105d484610a4e565b949350505050565b6008546105e93382610ac3565b6105f38183610add565b6008805490600061060383611256565b91905055505050565b6001600160a01b03918216600090815260056020908152604080832093909416825291909152205460ff1690565b610642610807565b6001600160a01b03811661066c57604051631e4fbdf760e01b8152600060048201526024016103a9565b61067581610834565b50565b60006001600160e01b031982166380ac58cd60e01b14806106a957506001600160e01b03198216635b5e139f60e01b145b806102b357506301ffc9a760e01b6001600160e01b03198316146102b3565b6000818152600260205260408120546001600160a01b0316806102b357604051637e27328960e01b8152600481018490526024016103a9565b61042e8383836001610b2d565b6000828152600260205260408120546001600160a01b039081169083161561073b5761073b818486610c33565b6001600160a01b0381161561077957610758600085600080610b2d565b6001600160a01b038116600090815260036020526040902080546000190190555b6001600160a01b038516156107a8576001600160a01b0385166000908152600360205260409020805460010190555b60008481526002602052604080822080546001600160a01b0319166001600160a01b0389811691821790925591518793918516917fddf252ad1be2c89b69c2b068fc378daa952ba7f163c4a11628f55a4df523b3ef91a4949350505050565b6007546001600160a01b031633146104985760405163118cdaa760e01b81523360048201526024016103a9565b600780546001600160a01b038381166001600160a01b0319831681179093556040519116919082907f8be0079c531659141344cd1fd0a4f28419497f9722a3daafe3b4186f6b6457e090600090a35050565b6001600160a01b0382166108b857604051630b61174360e31b81526001600160a01b03831660048201526024016103a9565b6001600160a01b03838116600081815260056020908152604080832094871680845294825291829020805460ff191686151590811790915591519182527f17307eab39ab6107e8899845ad3d59bd9653f200f220920489ca2b5937696c31910160405180910390a3505050565b6001600160a01b0383163b1561040d57604051630a85bd0160e11b81526001600160a01b0384169063150b7a029061096790339088908790879060040161127d565b6020604051808303816000875af19250505080156109a2575060408051601f3d908101601f1916820190925261099f918101906112ba565b60015b610a0b573d8080156109d0576040519150601f19603f3d011682016040523d82523d6000602084013e6109d5565b606091505b508051600003610a0357604051633250574960e11b81526001600160a01b03851660048201526024016103a9565b805181602001fd5b6001600160e01b03198116630a85bd0160e11b14610a4757604051633250574960e11b81526001600160a01b03851660048201526024016103a9565b5050505050565b6060610a59826106c8565b506000610a7160408051602081019091526000815290565b90506000815111610a915760405180602001604052806000815250610abc565b80610a9b84610c97565b604051602001610aac929190611227565b6040516020818303038152906040525b9392505050565b61037f828260405180602001604052806000815250610d2a565b6000828152600660205260409020610af58282611325565b506040518281527ff8e1a15aba9398e019f0b49df1a4fde98ee17ae345cb5f6b5e2c27f5033e8ce79060200160405180910390a15050565b8080610b4157506001600160a01b03821615155b15610c03576000610b51846106c8565b90506001600160a01b03831615801590610b7d5750826001600160a01b0316816001600160a01b031614155b8015610b905750610b8e818461060c565b155b15610bb95760405163a9fbf51f60e01b81526001600160a01b03841660048201526024016103a9565b8115610c015783856001600160a01b0316826001600160a01b03167f8c5be1e5ebec7d5bd14f71427d1e84f3dd0314c0f7b2291e5b200ac8c7c3b92560405160405180910390a45b505b5050600090815260046020526040902080546001600160a01b0319166001600160a01b0392909216919091179055565b610c3e838383610d41565b61042e576001600160a01b038316610c6c57604051637e27328960e01b8152600481018290526024016103a9565b60405163177e802f60e01b81526001600160a01b0383166004820152602481018290526044016103a9565b60606000610ca483610da4565b600101905060008167ffffffffffffffff811115610cc457610cc4611069565b6040519080825280601f01601f191660200182016040528015610cee576020820181803683370190505b5090508181016020015b600019016f181899199a1a9b1b9c1cb0b131b232b360811b600a86061a8153600a8504945084610cf857509392505050565b610d348383610e7c565b61042e6000848484610925565b60006001600160a01b038316158015906105d45750826001600160a01b0316846001600160a01b03161480610d7b5750610d7b848461060c565b806105d45750506000908152600460205260409020546001600160a01b03908116911614919050565b60008072184f03e93ff9f4daa797ed6e38ed64bf6a1f0160401b8310610de35772184f03e93ff9f4daa797ed6e38ed64bf6a1f0160401b830492506040015b6d04ee2d6d415b85acef81000000008310610e0f576d04ee2d6d415b85acef8100000000830492506020015b662386f26fc100008310610e2d57662386f26fc10000830492506010015b6305f5e1008310610e45576305f5e100830492506008015b6127108310610e5957612710830492506004015b60648310610e6b576064830492506002015b600a83106102b35760010192915050565b6001600160a01b038216610ea657604051633250574960e11b8152600060048201526024016103a9565b6000610eb48383600061070e565b90506001600160a01b0381161561042e576040516339e3563760e11b8152600060048201526024016103a9565b6001600160e01b03198116811461067557600080fd5b600060208284031215610f0957600080fd5b8135610abc81610ee1565b60005b83811015610f2f578181015183820152602001610f17565b50506000910152565b60008151808452610f50816020860160208601610f14565b601f01601f19169290920160200192915050565b602081526000610abc6020830184610f38565b600060208284031215610f8957600080fd5b5035919050565b80356001600160a01b0381168114610fa757600080fd5b919050565b60008060408385031215610fbf57600080fd5b610fc883610f90565b946020939093013593505050565b600080600060608486031215610feb57600080fd5b610ff484610f90565b925061100260208501610f90565b9150604084013590509250925092565b60006020828403121561102457600080fd5b610abc82610f90565b6000806040838503121561104057600080fd5b61104983610f90565b91506020830135801515811461105e57600080fd5b809150509250929050565b634e487b7160e01b600052604160045260246000fd5b600067ffffffffffffffff8084111561109a5761109a611069565b604051601f8501601f19908116603f011681019082821181831017156110c2576110c2611069565b816040528093508581528686860111156110db57600080fd5b858560208301376000602087830101525050509392505050565b6000806000806080858703121561110b57600080fd5b61111485610f90565b935061112260208601610f90565b925060408501359150606085013567ffffffffffffffff81111561114557600080fd5b8501601f8101871361115657600080fd5b6111658782356020840161107f565b91505092959194509250565b60006020828403121561118357600080fd5b813567ffffffffffffffff81111561119a57600080fd5b8201601f810184136111ab57600080fd5b6105d48482356020840161107f565b600080604083850312156111cd57600080fd5b6111d683610f90565b91506111e460208401610f90565b90509250929050565b600181811c9082168061120157607f821691505b60208210810361122157634e487b7160e01b600052602260045260246000fd5b50919050565b60008351611239818460208801610f14565b83519083019061124d818360208801610f14565b01949350505050565b60006001820161127657634e487b7160e01b600052601160045260246000fd5b5060010190565b6001600160a01b03858116825284166020820152604081018390526080606082018190526000906112b090830184610f38565b9695505050505050565b6000602082840312156112cc57600080fd5b8151610abc81610ee1565b601f82111561042e57600081815260208120601f850160051c810160208610156112fe5750805b601f850160051c820191505b8181101561131d5782815560010161130a565b505050505050565b815167ffffffffffffffff81111561133f5761133f611069565b6113538161134d84546111ed565b846112d7565b602080601f83116001811461138857600084156113705750858301515b600019600386901b1c1916600185901b17855561131d565b600085815260208120601f198616915b828110156113b757888601518255948401946001909101908401611398565b50858210156113d55787850151600019600388901b60f8161c191681555b5050505050600190811b0190555056fea264697066735822122026e1f746ff6577f1dd66af3d431935f011357f6537f6c28dbe953bffd35a95b064736f6c63430008140033",
  "linkReferences": {},
  "deployedLinkReferences": {}
}