{
  "_format": "hh-sol-artifact-1",
  "contractName": "NFTSTORE",
  "sourceName": "contracts/nft-marketplace.sol",
  "abi": [
    {
      "inputs": [],
      "stateMutability": "nonpayable",
      "type": "constructor"
    },
    {
      "inputs": [
        {
          "internalType": "address",
          "name": "sender",
          "type": "address"
        },
        {
          "internalType": "uint256",
          "name": "tokenId",
          "type": "uint256"
        },
        {
          "internalType": "address",
          "name": "owner",
          "type": "address"
        }
      ],
      "name": "ERC721IncorrectOwner",
      "type": "error"
    },
    {
      "inputs": [
        {
          "internalType": "address",
          "name": "operator",
          "type": "address"
        },
        {
          "internalType": "uint256",
          "name": "tokenId",
          "type": "uint256"
        }
      ],
      "name": "ERC721InsufficientApproval",
      "type": "error"
    },
    {
      "inputs": [
        {
          "internalType": "address",
          "name": "approver",
          "type": "address"
        }
      ],
      "name": "ERC721InvalidApprover",
      "type": "error"
    },
    {
      "inputs": [
        {
          "internalType": "address",
          "name": "operator",
          "type": "address"
        }
      ],
      "name": "ERC721InvalidOperator",
      "type": "error"
    },
    {
      "inputs": [
        {
          "internalType": "address",
          "name": "owner",
          "type": "address"
        }
      ],
      "name": "ERC721InvalidOwner",
      "type": "error"
    },
    {
      "inputs": [
        {
          "internalType": "address",
          "name": "receiver",
          "type": "address"
        }
      ],
      "name": "ERC721InvalidReceiver",
      "type": "error"
    },
    {
      "inputs": [
        {
          "internalType": "address",
          "name": "sender",
          "type": "address"
        }
      ],
      "name": "ERC721InvalidSender",
      "type": "error"
    },
    {
      "inputs": [
        {
          "internalType": "uint256",
          "name": "tokenId",
          "type": "uint256"
        }
      ],
      "name": "ERC721NonexistentToken",
      "type": "error"
    },
    {
      "anonymous": false,
      "inputs": [
        {
          "indexed": true,
          "internalType": "address",
          "name": "owner",
          "type": "address"
        },
        {
          "indexed": true,
          "internalType": "address",
          "name": "approved",
          "type": "address"
        },
        {
          "indexed": true,
          "internalType": "uint256",
          "name": "tokenId",
          "type": "uint256"
        }
      ],
      "name": "Approval",
      "type": "event"
    },
    {
      "anonymous": false,
      "inputs": [
        {
          "indexed": true,
          "internalType": "address",
          "name": "owner",
          "type": "address"
        },
        {
          "indexed": true,
          "internalType": "address",
          "name": "operator",
          "type": "address"
        },
        {
          "indexed": false,
          "internalType": "bool",
          "name": "approved",
          "type": "bool"
        }
      ],
      "name": "ApprovalForAll",
      "type": "event"
    },
    {
      "anonymous": false,
      "inputs": [
        {
          "indexed": false,
          "internalType": "uint256",
          "name": "_fromTokenId",
          "type": "uint256"
        },
        {
          "indexed": false,
          "internalType": "uint256",
          "name": "_toTokenId",
          "type": "uint256"
        }
      ],
      "name": "BatchMetadataUpdate",
      "type": "event"
    },
    {
      "anonymous": false,
      "inputs": [
        {
          "indexed": false,
          "internalType": "uint256",
          "name": "tokenId",
          "type": "uint256"
        }
      ],
      "name": "ListingCancelled",
      "type": "event"
    },
    {
      "anonymous": false,
      "inputs": [
        {
          "indexed": false,
          "internalType": "uint256",
          "name": "_tokenId",
          "type": "uint256"
        }
      ],
      "name": "MetadataUpdate",
      "type": "event"
    },
    {
      "anonymous": false,
      "inputs": [
        {
          "indexed": false,
          "internalType": "uint256",
          "name": "tokenId",
          "type": "uint256"
        },
        {
          "indexed": false,
          "internalType": "uint256",
          "name": "price",
          "type": "uint256"
        }
      ],
      "name": "NFTListed",
      "type": "event"
    },
    {
      "anonymous": false,
      "inputs": [
        {
          "indexed": false,
          "internalType": "uint256",
          "name": "tokenId",
          "type": "uint256"
        },
        {
          "indexed": false,
          "internalType": "address",
          "name": "buyer",
          "type": "address"
        },
        {
          "indexed": false,
          "internalType": "uint256",
          "name": "price",
          "type": "uint256"
        }
      ],
      "name": "NFTSold",
      "type": "event"
    },
    {
      "anonymous": false,
      "inputs": [
        {
          "indexed": false,
          "internalType": "uint256",
          "name": "tokenId",
          "type": "uint256"
        },
        {
          "indexed": false,
          "internalType": "address",
          "name": "offerer",
          "type": "address"
        },
        {
          "indexed": false,
          "internalType": "uint256",
          "name": "price",
          "type": "uint256"
        }
      ],
      "name": "OfferAccepted",
      "type": "event"
    },
    {
      "anonymous": false,
      "inputs": [
        {
          "indexed": false,
          "internalType": "uint256",
          "name": "tokenId",
          "type": "uint256"
        },
        {
          "indexed": false,
          "internalType": "address",
          "name": "offerer",
          "type": "address"
        },
        {
          "indexed": false,
          "internalType": "uint256",
          "name": "price",
          "type": "uint256"
        }
      ],
      "name": "OfferMade",
      "type": "event"
    },
    {
      "anonymous": false,
      "inputs": [
        {
          "indexed": true,
          "internalType": "address",
          "name": "from",
          "type": "address"
        },
        {
          "indexed": true,
          "internalType": "address",
          "name": "to",
          "type": "address"
        },
        {
          "indexed": true,
          "internalType": "uint256",
          "name": "tokenId",
          "type": "uint256"
        }
      ],
      "name": "Transfer",
      "type": "event"
    },
    {
      "inputs": [
        {
          "internalType": "uint256",
          "name": "_tokenId",
          "type": "uint256"
        },
        {
          "internalType": "uint256",
          "name": "_offerIndex",
          "type": "uint256"
        }
      ],
      "name": "acceptOffer",
      "outputs": [],
      "stateMutability": "nonpayable",
      "type": "function"
    },
    {
      "inputs": [
        {
          "internalType": "address",
          "name": "to",
          "type": "address"
        },
        {
          "internalType": "uint256",
          "name": "tokenId",
          "type": "uint256"
        }
      ],
      "name": "approve",
      "outputs": [],
      "stateMutability": "nonpayable",
      "type": "function"
    },
    {
      "inputs": [
        {
          "internalType": "address",
          "name": "owner",
          "type": "address"
        }
      ],
      "name": "balanceOf",
      "outputs": [
        {
          "internalType": "uint256",
          "name": "",
          "type": "uint256"
        }
      ],
      "stateMutability": "view",
      "type": "function"
    },
    {
      "inputs": [
        {
          "internalType": "uint256",
          "name": "_tokenId",
          "type": "uint256"
        }
      ],
      "name": "cancelListing",
      "outputs": [],
      "stateMutability": "nonpayable",
      "type": "function"
    },
    {
      "inputs": [
        {
          "internalType": "string",
          "name": "_tokenURI",
          "type": "string"
        },
        {
          "internalType": "uint256",
          "name": "_price",
          "type": "uint256"
        }
      ],
      "name": "createToken",
      "outputs": [
        {
          "internalType": "uint256",
          "name": "",
          "type": "uint256"
        }
      ],
      "stateMutability": "nonpayable",
      "type": "function"
    },
    {
      "inputs": [
        {
          "internalType": "uint256",
          "name": "_tokenId",
          "type": "uint256"
        }
      ],
      "name": "executeSale",
      "outputs": [],
      "stateMutability": "payable",
      "type": "function"
    },
    {
      "inputs": [],
      "name": "getAllListedNFTs",
      "outputs": [
        {
          "components": [
            {
              "internalType": "uint256",
              "name": "tokenId",
              "type": "uint256"
            },
            {
              "internalType": "address payable",
              "name": "owner",
              "type": "address"
            },
            {
              "internalType": "address payable",
              "name": "seller",
              "type": "address"
            },
            {
              "internalType": "uint256",
              "name": "price",
              "type": "uint256"
            },
            {
              "internalType": "bool",
              "name": "isListed",
              "type": "bool"
            }
          ],
          "internalType": "struct NFTSTORE.NFTListing[]",
          "name": "",
          "type": "tuple[]"
        }
      ],
      "stateMutability": "view",
      "type": "function"
    },
    {
      "inputs": [
        {
          "internalType": "uint256",
          "name": "tokenId",
          "type": "uint256"
        }
      ],
      "name": "getApproved",
      "outputs": [
        {
          "internalType": "address",
          "name": "",
          "type": "address"
        }
      ],
      "stateMutability": "view",
      "type": "function"
    },
    {
      "inputs": [],
      "name": "getCurrentTokenId",
      "outputs": [
        {
          "internalType": "uint256",
          "name": "",
          "type": "uint256"
        }
      ],
      "stateMutability": "view",
      "type": "function"
    },
    {
      "inputs": [],
      "name": "getListingFeePercent",
      "outputs": [
        {
          "internalType": "uint256",
          "name": "",
          "type": "uint256"
        }
      ],
      "stateMutability": "view",
      "type": "function"
    },
    {
      "inputs": [],
      "name": "getMyNFTs",
      "outputs": [
        {
          "components": [
            {
              "internalType": "uint256",
              "name": "tokenId",
              "type": "uint256"
            },
            {
              "internalType": "address payable",
              "name": "owner",
              "type": "address"
            },
            {
              "internalType": "address payable",
              "name": "seller",
              "type": "address"
            },
            {
              "internalType": "uint256",
              "name": "price",
              "type": "uint256"
            },
            {
              "internalType": "bool",
              "name": "isListed",
              "type": "bool"
            }
          ],
          "internalType": "struct NFTSTORE.NFTListing[]",
          "name": "",
          "type": "tuple[]"
        }
      ],
      "stateMutability": "view",
      "type": "function"
    },
    {
      "inputs": [
        {
          "internalType": "uint256",
          "name": "_tokenId",
          "type": "uint256"
        }
      ],
      "name": "getNFTListing",
      "outputs": [
        {
          "components": [
            {
              "internalType": "uint256",
              "name": "tokenId",
              "type": "uint256"
            },
            {
              "internalType": "address payable",
              "name": "owner",
              "type": "address"
            },
            {
              "internalType": "address payable",
              "name": "seller",
              "type": "address"
            },
            {
              "internalType": "uint256",
              "name": "price",
              "type": "uint256"
            },
            {
              "internalType": "bool",
              "name": "isListed",
              "type": "bool"
            }
          ],
          "internalType": "struct NFTSTORE.NFTListing",
          "name": "",
          "type": "tuple"
        }
      ],
      "stateMutability": "view",
      "type": "function"
    },
    {
      "inputs": [
        {
          "internalType": "uint256",
          "name": "_tokenId",
          "type": "uint256"
        }
      ],
      "name": "getOffers",
      "outputs": [
        {
          "components": [
            {
              "internalType": "address payable",
              "name": "offerer",
              "type": "address"
            },
            {
              "internalType": "uint256",
              "name": "price",
              "type": "uint256"
            }
          ],
          "internalType": "struct NFTSTORE.Offer[]",
          "name": "",
          "type": "tuple[]"
        }
      ],
      "stateMutability": "view",
      "type": "function"
    },
    {
      "inputs": [
        {
          "internalType": "address",
          "name": "owner",
          "type": "address"
        },
        {
          "internalType": "address",
          "name": "operator",
          "type": "address"
        }
      ],
      "name": "isApprovedForAll",
      "outputs": [
        {
          "internalType": "bool",
          "name": "",
          "type": "bool"
        }
      ],
      "stateMutability": "view",
      "type": "function"
    },
    {
      "inputs": [],
      "name": "listingFeePercent",
      "outputs": [
        {
          "internalType": "uint256",
          "name": "",
          "type": "uint256"
        }
      ],
      "stateMutability": "view",
      "type": "function"
    },
    {
      "inputs": [
        {
          "internalType": "uint256",
          "name": "_tokenId",
          "type": "uint256"
        },
        {
          "internalType": "uint256",
          "name": "_offerPrice",
          "type": "uint256"
        }
      ],
      "name": "makeOffer",
      "outputs": [],
      "stateMutability": "nonpayable",
      "type": "function"
    },
    {
      "inputs": [],
      "name": "marketplaceOwner",
      "outputs": [
        {
          "internalType": "address payable",
          "name": "",
          "type": "address"
        }
      ],
      "stateMutability": "view",
      "type": "function"
    },
    {
      "inputs": [],
      "name": "name",
      "outputs": [
        {
          "internalType": "string",
          "name": "",
          "type": "string"
        }
      ],
      "stateMutability": "view",
      "type": "function"
    },
    {
      "inputs": [
        {
          "internalType": "uint256",
          "name": "tokenId",
          "type": "uint256"
        }
      ],
      "name": "ownerOf",
      "outputs": [
        {
          "internalType": "address",
          "name": "",
          "type": "address"
        }
      ],
      "stateMutability": "view",
      "type": "function"
    },
    {
      "inputs": [
        {
          "internalType": "address",
          "name": "from",
          "type": "address"
        },
        {
          "internalType": "address",
          "name": "to",
          "type": "address"
        },
        {
          "internalType": "uint256",
          "name": "tokenId",
          "type": "uint256"
        }
      ],
      "name": "safeTransferFrom",
      "outputs": [],
      "stateMutability": "nonpayable",
      "type": "function"
    },
    {
      "inputs": [
        {
          "internalType": "address",
          "name": "from",
          "type": "address"
        },
        {
          "internalType": "address",
          "name": "to",
          "type": "address"
        },
        {
          "internalType": "uint256",
          "name": "tokenId",
          "type": "uint256"
        },
        {
          "internalType": "bytes",
          "name": "data",
          "type": "bytes"
        }
      ],
      "name": "safeTransferFrom",
      "outputs": [],
      "stateMutability": "nonpayable",
      "type": "function"
    },
    {
      "inputs": [
        {
          "internalType": "address",
          "name": "operator",
          "type": "address"
        },
        {
          "internalType": "bool",
          "name": "approved",
          "type": "bool"
        }
      ],
      "name": "setApprovalForAll",
      "outputs": [],
      "stateMutability": "nonpayable",
      "type": "function"
    },
    {
      "inputs": [
        {
          "internalType": "bytes4",
          "name": "interfaceId",
          "type": "bytes4"
        }
      ],
      "name": "supportsInterface",
      "outputs": [
        {
          "internalType": "bool",
          "name": "",
          "type": "bool"
        }
      ],
      "stateMutability": "view",
      "type": "function"
    },
    {
      "inputs": [],
      "name": "symbol",
      "outputs": [
        {
          "internalType": "string",
          "name": "",
          "type": "string"
        }
      ],
      "stateMutability": "view",
      "type": "function"
    },
    {
      "inputs": [
        {
          "internalType": "uint256",
          "name": "tokenId",
          "type": "uint256"
        }
      ],
      "name": "tokenURI",
      "outputs": [
        {
          "internalType": "string",
          "name": "",
          "type": "string"
        }
      ],
      "stateMutability": "view",
      "type": "function"
    },
    {
      "inputs": [
        {
          "internalType": "address",
          "name": "from",
          "type": "address"
        },
        {
          "internalType": "address",
          "name": "to",
          "type": "address"
        },
        {
          "internalType": "uint256",
          "name": "tokenId",
          "type": "uint256"
        }
      ],
      "name": "transferFrom",
      "outputs": [],
      "stateMutability": "nonpayable",
      "type": "function"
    },
    {
      "inputs": [
        {
          "internalType": "uint256",
          "name": "_listingFeePercent",
          "type": "uint256"
        }
      ],
      "name": "updateListingFeePercent",
      "outputs": [],
      "stateMutability": "nonpayable",
      "type": "function"
    }
  ],
  "bytecode": "0x608060405260146008553480156200001657600080fd5b50604051806040016040528060088152602001674e465453544f524560c01b815250604051806040016040528060048152602001634e46545360e01b815250816000908162000066919062000135565b50600162000075828262000135565b5050600780546001600160a01b031916331790555062000201565b634e487b7160e01b600052604160045260246000fd5b600181811c90821680620000bb57607f821691505b602082108103620000dc57634e487b7160e01b600052602260045260246000fd5b50919050565b601f8211156200013057600081815260208120601f850160051c810160208610156200010b5750805b601f850160051c820191505b818110156200012c5782815560010162000117565b5050505b505050565b81516001600160401b0381111562000151576200015162000090565b6200016981620001628454620000a6565b84620000e2565b602080601f831160018114620001a15760008415620001885750858301515b600019600386901b1c1916600185901b1785556200012c565b600085815260208120601f198616915b82811015620001d257888601518255948401946001909101908401620001b1565b5085821015620001f15787850151600019600388901b60f8161c191681555b5050505050600190811b01905550565b61255e80620002116000396000f3fe60806040526004361061019c5760003560e01c8063629cb2e4116100ec5780639b1225c41161008a578063b88d4fde11610064578063b88d4fde14610510578063c87b56dd14610530578063dfa49e6f14610550578063e985e9c51461057d57600080fd5b80639b1225c4146104bd578063a22cb465146104d0578063ac6a9185146104f057600080fd5b806370a08231116100c657806370a082311461044857806372b3b6201461046857806381257bd51461048857806395d89b41146104a857600080fd5b8063629cb2e4146103f35780636352211e14610408578063650025a01461042857600080fd5b80630ea59c4b1161015957806342842e0e1161013357806342842e0e146103865780634b58ffaa146103a657806356189236146103c85780636151ff2e146103dd57600080fd5b80630ea59c4b1461029157806323b872dd14610346578063305a67a81461036657600080fd5b806301ffc9a7146101a157806305b7cdd3146101d657806306fc1245146101f857806306fdde0314610217578063081812fc14610239578063095ea7b314610271575b600080fd5b3480156101ad57600080fd5b506101c16101bc366004611dff565b61059d565b60405190151581526020015b60405180910390f35b3480156101e257600080fd5b506101f66101f1366004611e1c565b6105c8565b005b34801561020457600080fd5b506008545b6040519081526020016101cd565b34801561022357600080fd5b5061022c610703565b6040516101cd9190611e8e565b34801561024557600080fd5b50610259610254366004611ea1565b610795565b6040516001600160a01b0390911681526020016101cd565b34801561027d57600080fd5b506101f661028c366004611ed6565b6107be565b34801561029d57600080fd5b506103396102ac366004611ea1565b6040805160a081018252600080825260208201819052918101829052606081018290526080810191909152506000908152600b6020908152604091829020825160a0810184528154815260018201546001600160a01b03908116938201939093526002820154909216928201929092526003820154606082015260049091015460ff161515608082015290565b6040516101cd9190611f40565b34801561035257600080fd5b506101f6610361366004611f4e565b6107cd565b34801561037257600080fd5b506101f6610381366004611ea1565b610858565b34801561039257600080fd5b506101f66103a1366004611f4e565b61090f565b3480156103b257600080fd5b506103bb61092f565b6040516101cd9190611f8a565b3480156103d457600080fd5b50600954610209565b3480156103e957600080fd5b5061020960085481565b3480156103ff57600080fd5b506103bb610a78565b34801561041457600080fd5b50610259610423366004611ea1565b610cb8565b34801561043457600080fd5b50600754610259906001600160a01b031681565b34801561045457600080fd5b50610209610463366004611fd8565b610cc3565b34801561047457600080fd5b5061020961048336600461207f565b610d0b565b34801561049457600080fd5b506101f66104a3366004611e1c565b610e58565b3480156104b457600080fd5b5061022c611108565b6101f66104cb366004611ea1565b611117565b3480156104dc57600080fd5b506101f66104eb3660046120d8565b611301565b3480156104fc57600080fd5b506101f661050b366004611ea1565b61130c565b34801561051c57600080fd5b506101f661052b366004612114565b611375565b34801561053c57600080fd5b5061022c61054b366004611ea1565b61138c565b34801561055c57600080fd5b5061057061056b366004611ea1565b61149d565b6040516101cd9190612190565b34801561058957600080fd5b506101c16105983660046121e8565b611525565b60006001600160e01b03198216632483248360e11b14806105c257506105c282611553565b92915050565b6000811161062b5760405162461bcd60e51b815260206004820152602560248201527f4f66666572207072696365206d7573742062652067726561746572207468616e604482015264207a65726f60d81b60648201526084015b60405180910390fd5b6000828152600b602052604090206004015460ff1661065c5760405162461bcd60e51b81526004016106229061221b565b6000828152600c602090815260408083208151808301835233808252818501878152835460018082018655948852968690209251600290970290920180546001600160a01b0319166001600160a01b03909716969096178655905194909101939093558051858152918201929092529081018290527fbdf1e76c2ba2a5c85b93bf78678a4a3b06d63b18422612dac8d7d5249ed46714906060015b60405180910390a15050565b60606000805461071290612252565b80601f016020809104026020016040519081016040528092919081815260200182805461073e90612252565b801561078b5780601f106107605761010080835404028352916020019161078b565b820191906000526020600020905b81548152906001019060200180831161076e57829003601f168201915b5050505050905090565b60006107a0826115a3565b506000828152600460205260409020546001600160a01b03166105c2565b6107c98282336115dc565b5050565b6001600160a01b0382166107f757604051633250574960e11b815260006004820152602401610622565b60006108048383336115e9565b9050836001600160a01b0316816001600160a01b031614610852576040516364283d7b60e01b81526001600160a01b0380861660048301526024820184905282166044820152606401610622565b50505050565b6000818152600b602052604090206001015481906001600160a01b031633146108935760405162461bcd60e51b81526004016106229061228c565b6000828152600b602052604090206004015460ff166108c45760405162461bcd60e51b81526004016106229061221b565b6000828152600b602052604090819020600401805460ff19169055517f411aee90354c51b1b04cd563fcab2617142a9d50da19232d888547c8a1b7fd8a906106f79084815260200190565b61092a83838360405180602001604052806000815250611375565b505050565b60095460609060008167ffffffffffffffff81111561095057610950611ff3565b6040519080825280602002602001820160405280156109a957816020015b6040805160a08101825260008082526020808301829052928201819052606082018190526080820152825260001990920191018161096e5790505b5090506000805b83811015610a6f5760006109c58260016122ed565b6000818152600b6020526040902060048101549192509060ff1615610a5a576040805160a0810182528254815260018301546001600160a01b0390811660208301526002840154169181019190915260038201546060820152600482015460ff16151560808201528551869086908110610a4157610a41612300565b6020908102919091010152610a576001856122ed565b93505b50508080610a6790612316565b9150506109b0565b50909392505050565b600954606090600080805b83811015610b135733600b6000610a9b8460016122ed565b81526020810191909152604001600020600101546001600160a01b03161480610aee575033600b6000610acf8460016122ed565b81526020810191909152604001600020600201546001600160a01b0316145b15610b015782610afd81612316565b9350505b80610b0b81612316565b915050610a83565b5060008267ffffffffffffffff811115610b2f57610b2f611ff3565b604051908082528060200260200182016040528015610b8857816020015b6040805160a081018252600080825260208083018290529282018190526060820181905260808201528252600019909201910181610b4d5790505b50905060005b84811015610caf5733600b6000610ba68460016122ed565b81526020810191909152604001600020600101546001600160a01b03161480610bf9575033600b6000610bda8460016122ed565b81526020810191909152604001600020600201546001600160a01b0316145b15610c9d576000610c0b8260016122ed565b6000818152600b6020908152604091829020825160a0810184528154815260018201546001600160a01b039081169382019390935260028201549092169282019290925260038201546060820152600482015460ff161515608082015285519293509091859087908110610c8157610c81612300565b60200260200101819052508480610c9790612316565b95505050505b80610ca781612316565b915050610b8e565b50949350505050565b60006105c2826115a3565b60006001600160a01b038216610cef576040516322718ad960e21b815260006004820152602401610622565b506001600160a01b031660009081526003602052604090205490565b6000808211610d5c5760405162461bcd60e51b815260206004820152601f60248201527f5072696365206d7573742062652067726561746572207468616e207a65726f006044820152606401610622565b60098054906000610d6c83612316565b9091555050600954610d7e33826116e2565b610d8881856116fc565b6040805160a081018252828152336020808301828152838501928352606084018881526001608086018181526000898152600b9095529690932094518555905191840180546001600160a01b03199081166001600160a01b0394851617909155925160028501805490941692169190911790915551600382015590516004909101805460ff191691151591909117905560408051828152602081018590527fa6cd73580a273eec6c1026108f6b63479fbaef5356dde4ff43e4b38dd187485f910160405180910390a19392505050565b6000828152600b602052604090206001015482906001600160a01b03163314610e935760405162461bcd60e51b81526004016106229061228c565b6000838152600c60205260408120805484908110610eb357610eb3612300565b60009182526020808320604080518082018252600290940290910180546001600160a01b031684526001015483830152878452600b9091529091206004015490915060ff16610f145760405162461bcd60e51b81526004016106229061221b565b60208082015182516000878152600c90935260409092208054919291610f3c9060019061232f565b81548110610f4c57610f4c612300565b9060005260206000209060020201600c60008881526020019081526020016000208681548110610f7e57610f7e612300565b60009182526020808320845460029093020180546001600160a01b0319166001600160a01b039093169290921782556001938401549390910192909255878152600c90915260409020805480610fd657610fd6612342565b60008281526020812060026000199093019283020180546001600160a01b031916815560010155905561100a338288611745565b600060646008548461101c9190612358565b611026919061236f565b6007546040519192506001600160a01b03169082156108fc029083906000818181858888f19350505050158015611061573d6000803e3d6000fd5b50336108fc611070838661232f565b6040518115909202916000818181858888f19350505050158015611098573d6000803e3d6000fd5b506000878152600b6020908152604091829020600401805460ff1916905581518981526001600160a01b038516918101919091529081018490527fea555ab99331ceac5051c58f17cc7b411b30241b0e28cb93a7d3a24c77a7a9a99060600160405180910390a150505050505050565b60606001805461071290612252565b6000818152600b602052604090206003810154600282015460048301546001600160a01b039091169060ff1661115f5760405162461bcd60e51b81526004016106229061221b565b8134146111d45760405162461bcd60e51b815260206004820152603760248201527f506c65617365207375626d6974207468652061736b696e67207072696365207460448201527f6f20636f6d706c657465207468652070757263686173650000000000000000006064820152608401610622565b6002830180546001600160a01b0319163317905560048301805460ff19169055600a805490600061120483612316565b90915550506001830154611222906001600160a01b03163386611745565b60006064600854846112349190612358565b61123e919061236f565b6007546040519192506001600160a01b03169082156108fc029083906000818181858888f19350505050158015611279573d6000803e3d6000fd5b506001600160a01b0382166108fc611291833461232f565b6040518115909202916000818181858888f193505050501580156112b9573d6000803e3d6000fd5b50604080518681523360208201529081018490527f6329e40c0365262ebbff5ca819385c2b9713dcaa050ed07866d72c441395699a9060600160405180910390a15050505050565b6107c93383836117f5565b6007546001600160a01b031633146113705760405162461bcd60e51b815260206004820152602160248201527f4f6e6c79206f776e65722063616e2063616c6c20746869732066756e6374696f6044820152603760f91b6064820152608401610622565b600855565b6113808484846107cd565b61085284848484611894565b6060611397826115a3565b50600082815260066020526040812080546113b190612252565b80601f01602080910402602001604051908101604052809291908181526020018280546113dd90612252565b801561142a5780601f106113ff5761010080835404028352916020019161142a565b820191906000526020600020905b81548152906001019060200180831161140d57829003601f168201915b50505050509050600061144860408051602081019091526000815290565b9050805160000361145a575092915050565b81511561148c578082604051602001611474929190612391565b60405160208183030381529060405292505050919050565b611495846119bd565b949350505050565b6060600c6000838152602001908152602001600020805480602002602001604051908101604052809291908181526020016000905b8282101561151a576000848152602090819020604080518082019091526002850290910180546001600160a01b031682526001908101548284015290835290920191016114d2565b505050509050919050565b6001600160a01b03918216600090815260056020908152604080832093909416825291909152205460ff1690565b60006001600160e01b031982166380ac58cd60e01b148061158457506001600160e01b03198216635b5e139f60e01b145b806105c257506301ffc9a760e01b6001600160e01b03198316146105c2565b6000818152600260205260408120546001600160a01b0316806105c257604051637e27328960e01b815260048101849052602401610622565b61092a8383836001611a32565b6000828152600260205260408120546001600160a01b039081169083161561161657611616818486611b38565b6001600160a01b0381161561165457611633600085600080611a32565b6001600160a01b038116600090815260036020526040902080546000190190555b6001600160a01b03851615611683576001600160a01b0385166000908152600360205260409020805460010190555b60008481526002602052604080822080546001600160a01b0319166001600160a01b0389811691821790925591518793918516917fddf252ad1be2c89b69c2b068fc378daa952ba7f163c4a11628f55a4df523b3ef91a4949350505050565b6107c9828260405180602001604052806000815250611b9c565b6000828152600660205260409020611714828261240e565b506040518281527ff8e1a15aba9398e019f0b49df1a4fde98ee17ae345cb5f6b5e2c27f5033e8ce7906020016106f7565b6001600160a01b03821661176f57604051633250574960e11b815260006004820152602401610622565b600061177d838360006115e9565b90506001600160a01b0381166117a957604051637e27328960e01b815260048101839052602401610622565b836001600160a01b0316816001600160a01b031614610852576040516364283d7b60e01b81526001600160a01b0380861660048301526024820184905282166044820152606401610622565b6001600160a01b03821661182757604051630b61174360e31b81526001600160a01b0383166004820152602401610622565b6001600160a01b03838116600081815260056020908152604080832094871680845294825291829020805460ff191686151590811790915591519182527f17307eab39ab6107e8899845ad3d59bd9653f200f220920489ca2b5937696c31910160405180910390a3505050565b6001600160a01b0383163b1561085257604051630a85bd0160e11b81526001600160a01b0384169063150b7a02906118d69033908890879087906004016124ce565b6020604051808303816000875af1925050508015611911575060408051601f3d908101601f1916820190925261190e9181019061250b565b60015b61197a573d80801561193f576040519150601f19603f3d011682016040523d82523d6000602084013e611944565b606091505b50805160000361197257604051633250574960e11b81526001600160a01b0385166004820152602401610622565b805181602001fd5b6001600160e01b03198116630a85bd0160e11b146119b657604051633250574960e11b81526001600160a01b0385166004820152602401610622565b5050505050565b60606119c8826115a3565b5060006119e060408051602081019091526000815290565b90506000815111611a005760405180602001604052806000815250611a2b565b80611a0a84611bb3565b604051602001611a1b929190612391565b6040516020818303038152906040525b9392505050565b8080611a4657506001600160a01b03821615155b15611b08576000611a56846115a3565b90506001600160a01b03831615801590611a825750826001600160a01b0316816001600160a01b031614155b8015611a955750611a938184611525565b155b15611abe5760405163a9fbf51f60e01b81526001600160a01b0384166004820152602401610622565b8115611b065783856001600160a01b0316826001600160a01b03167f8c5be1e5ebec7d5bd14f71427d1e84f3dd0314c0f7b2291e5b200ac8c7c3b92560405160405180910390a45b505b5050600090815260046020526040902080546001600160a01b0319166001600160a01b0392909216919091179055565b611b43838383611c46565b61092a576001600160a01b038316611b7157604051637e27328960e01b815260048101829052602401610622565b60405163177e802f60e01b81526001600160a01b038316600482015260248101829052604401610622565b611ba68383611ca9565b61092a6000848484611894565b60606000611bc083611d0e565b600101905060008167ffffffffffffffff811115611be057611be0611ff3565b6040519080825280601f01601f191660200182016040528015611c0a576020820181803683370190505b5090508181016020015b600019016f181899199a1a9b1b9c1cb0b131b232b360811b600a86061a8153600a8504945084611c1457509392505050565b60006001600160a01b038316158015906114955750826001600160a01b0316846001600160a01b03161480611c805750611c808484611525565b806114955750506000908152600460205260409020546001600160a01b03908116911614919050565b6001600160a01b038216611cd357604051633250574960e11b815260006004820152602401610622565b6000611ce1838360006115e9565b90506001600160a01b0381161561092a576040516339e3563760e11b815260006004820152602401610622565b60008072184f03e93ff9f4daa797ed6e38ed64bf6a1f0160401b8310611d4d5772184f03e93ff9f4daa797ed6e38ed64bf6a1f0160401b830492506040015b6d04ee2d6d415b85acef81000000008310611d79576d04ee2d6d415b85acef8100000000830492506020015b662386f26fc100008310611d9757662386f26fc10000830492506010015b6305f5e1008310611daf576305f5e100830492506008015b6127108310611dc357612710830492506004015b60648310611dd5576064830492506002015b600a83106105c25760010192915050565b6001600160e01b031981168114611dfc57600080fd5b50565b600060208284031215611e1157600080fd5b8135611a2b81611de6565b60008060408385031215611e2f57600080fd5b50508035926020909101359150565b60005b83811015611e59578181015183820152602001611e41565b50506000910152565b60008151808452611e7a816020860160208601611e3e565b601f01601f19169290920160200192915050565b602081526000611a2b6020830184611e62565b600060208284031215611eb357600080fd5b5035919050565b80356001600160a01b0381168114611ed157600080fd5b919050565b60008060408385031215611ee957600080fd5b611ef283611eba565b946020939093013593505050565b805182526020808201516001600160a01b039081169184019190915260408083015190911690830152606080820151908301526080908101511515910152565b60a081016105c28284611f00565b600080600060608486031215611f6357600080fd5b611f6c84611eba565b9250611f7a60208501611eba565b9150604084013590509250925092565b6020808252825182820181905260009190848201906040850190845b81811015611fcc57611fb9838551611f00565b9284019260a09290920191600101611fa6565b50909695505050505050565b600060208284031215611fea57600080fd5b611a2b82611eba565b634e487b7160e01b600052604160045260246000fd5b600067ffffffffffffffff8084111561202457612024611ff3565b604051601f8501601f19908116603f0116810190828211818310171561204c5761204c611ff3565b8160405280935085815286868601111561206557600080fd5b858560208301376000602087830101525050509392505050565b6000806040838503121561209257600080fd5b823567ffffffffffffffff8111156120a957600080fd5b8301601f810185136120ba57600080fd5b6120c985823560208401612009565b95602094909401359450505050565b600080604083850312156120eb57600080fd5b6120f483611eba565b91506020830135801515811461210957600080fd5b809150509250929050565b6000806000806080858703121561212a57600080fd5b61213385611eba565b935061214160208601611eba565b925060408501359150606085013567ffffffffffffffff81111561216457600080fd5b8501601f8101871361217557600080fd5b61218487823560208401612009565b91505092959194509250565b602080825282518282018190526000919060409081850190868401855b828110156121db57815180516001600160a01b031685528601518685015292840192908501906001016121ad565b5091979650505050505050565b600080604083850312156121fb57600080fd5b61220483611eba565b915061221260208401611eba565b90509250929050565b6020808252601a908201527f4e4654206973206e6f74206c697374656420666f722073616c65000000000000604082015260600190565b600181811c9082168061226657607f821691505b60208210810361228657634e487b7160e01b600052602260045260246000fd5b50919050565b6020808252602b908201527f4f6e6c792074686520746f6b656e206f776e65722063616e2063616c6c20746860408201526a34b990333ab731ba34b7b760a91b606082015260800190565b634e487b7160e01b600052601160045260246000fd5b808201808211156105c2576105c26122d7565b634e487b7160e01b600052603260045260246000fd5b600060018201612328576123286122d7565b5060010190565b818103818111156105c2576105c26122d7565b634e487b7160e01b600052603160045260246000fd5b80820281158282048414176105c2576105c26122d7565b60008261238c57634e487b7160e01b600052601260045260246000fd5b500490565b600083516123a3818460208801611e3e565b8351908301906123b7818360208801611e3e565b01949350505050565b601f82111561092a57600081815260208120601f850160051c810160208610156123e75750805b601f850160051c820191505b81811015612406578281556001016123f3565b505050505050565b815167ffffffffffffffff81111561242857612428611ff3565b61243c816124368454612252565b846123c0565b602080601f83116001811461247157600084156124595750858301515b600019600386901b1c1916600185901b178555612406565b600085815260208120601f198616915b828110156124a057888601518255948401946001909101908401612481565b50858210156124be5787850151600019600388901b60f8161c191681555b5050505050600190811b01905550565b6001600160a01b038581168252841660208201526040810183905260806060820181905260009061250190830184611e62565b9695505050505050565b60006020828403121561251d57600080fd5b8151611a2b81611de656fea26469706673582212200569f5b859465ca17373674e9b13c5c5e650e650e6b75f7da3a5febf29c6e29364736f6c63430008140033",
  "linkReferences": {},
  "deployedLinkReferences": {}
}